:020000040800F2
:10000000500500204901000899050008B9040008BE
:100010009705000805020008310B000800000000E9
:10002000000000000000000000000000950700082C
:1000300025020008000000003D0600084D080008E9
:100040006301000863010008630100086301000800
:1000500063010008630100086301000863010008F0
:1000600063010008630100086301000863010008E0
:1000700063010008630100086301000863010008D0
:1000800063010008630100086301000863010008C0
:1000900063010008630100086301000863010008B0
:1000A00063010008630100086301000863010008A0
:1000B0006301000863010008630100086301000890
:1000C0006301000863010008630100086301000880
:1000D00063010008010900083109000863010008F4
:1000E0006301000863010008630100086301000860
:1000F0006301000863010008630100086301000850
:10010000630100083107000863010008630100086B
:10011000630100086301000863010008630100082F
:10012000630100086301000863010008630100081F
:10013000DFF810D000F054F8004800475D0F0008C9
:10014000AFF300805005002006488047064800476E
:10015000FEE7FEE7FEE7FEE7FEE7FEE7FEE7FEE777
:10016000FEE7FEE79D08000831010008D2B201E079
:1001700000F8012B491EFBD270470022F6E710B5AC
:1001800013460A4604461946FFF7F0FF204610BD05
:1001900030B505462A460B4612F8010B13F8014B01
:1001A00008B1A042F8D01CB1002802D06D1CF1E7C4
:1001B000284630BD30B50B460146002020220124E0
:1001C00009E021FA02F59D4205D303FA02F5491B25
:1001D00004FA02F52844151EA2F10102F1DC30BD3B
:1001E000064C074D06E0E06840F0010394E8070084
:1001F00098471034AC42F6D3FFF79EFFC0110008B9
:10020000E0110008FEE700000548416B11F0450FC2
:10021000FBD040F2FF518163406900F00800704755
:1002200000800140704711B54FF47A7402E0204617
:1002300000F006F800994A1E0092F8D218BD00009E
:1002400001B50648009901604FF0E0210A6942F0CB
:1002500001020A6101680029FCD108BD44000020A8
:100260002DE9F0410022CC7804F00F03E40601D51B
:100270008C7823430C784FF00F0714F0FF0F4FF0EA
:10028000010C1CD005680CFA02F40E882640A64228
:1002900011D1960007FA06F825EA080503FA06F8D0
:1002A00048EA0505CE78282E02D0482E02D002E07A
:1002B000446100E00461521C082AE4D305600A8806
:1002C000FF2A1ED94568002202F108060CFA06F43E
:1002D0000E882640A64210D1960007FA06F825EAB5
:1002E000080503FA06F848EA0505CE78282E00D15D
:1002F0004461CE78482E00D10461521C082AE3D311
:100300004560BDE8F0810246002092680A4200D0B4
:100310000120704708B54FF4E06000F085F9262011
:100320008DF8000001208DF801008DF802008DF895
:100330000300684600F046F908BD000030B585B0FE
:100340000121042000F08AF90121480400F078F925
:100350000424ADF8104018208DF8130003208DF808
:100360001200184D04A92846FFF77AFF0821ADF8BE
:1003700010108DF8134004A92846FFF771FF4FF4C1
:10038000E13000900020ADF80400ADF80600ADF8B3
:100390000800ADF80C000C20ADF80A000A4C6946C4
:1003A000204600F05FFBFFF7B5FF012240F2255128
:1003B000204600F03CFB0121204600F0BBFA05B0CE
:1003C00030BD000000080140004400400FB430B5CB
:1003D00085B009A80090374D0EE05C2914D025297E
:1003E0002CD0521C2846089200F09EFB8021284603
:1003F00000F0F6FA0028F9D0089A11780029ECD11B
:1004000005B030BC5DF814FB521C089210786E28C1
:100410000CD0722802D0521C0892E7E70D21284622
:1004200000F082FB0898401C0890DFE70A2128466C
:1004300000F07AFB0898401C0890D7E7521C0892FD
:100440001078642819D0732802D0521C0892CDE786
:10045000009810C8009009E0284600F065FB802154
:10046000284600F0BDFA0028F9D0641C2178002944
:10047000F2D10898401C0890B8E7009800990068ED
:10048000091D00910A2201A900F03AFD01AC09E022
:10049000284600F049FB8021284600F0A1FA0028F8
:1004A000F9D0641C21780029F2D10898401C0890EA
:1004B0009CE7000000440040FEE7000038B5054618
:1004C0001AA000F0A5FC08B1012038BD684600F074
:1004D0006FFC044615A12046FFF75AFE38B19DF87F
:1004E0000010001B081AC0B2009010B10AE00120F1
:1004F00038BD012038BD9DF80000401EC0B20090FC
:1005000028B1641C20783A28F5D1E41C04E00120CD
:1005100038BD05F8010B641C20782228F9D1002091
:10052000287000F021FC002038BD000052494E47E1
:100530000000000038B50121142000F08FF80120E0
:10054000ADF8000004248DF8034069460648FFF723
:1005500087FEE002ADF800008DF8034069460348CD
:10056000FFF77EFE38BD000000080140001001408A
:1005700070B504460D4629462046FFF7C4FE012803
:1005800001D0002070BD29462046FFF7BCFE01289F
:10059000F9D0012070BDFEE7704708B54FF4C06088
:1005A00000F042F825208DF8000000208DF80100B1
:1005B00001208DF802008DF80300684600F002F873
:1005C00008BD000070B50F23C27801260178002A0B
:1005D0001ED0144A126802F4E062C2F5E062120A08
:1005E000C2F10404D3404578A54082781A402A43DA
:1005F000120101F1E02181F80024007800F01F01D0
:100600008E404009800000F1E020C0F8006170BD1C
:1006100001F01F0086404809800000F1E020C0F88A
:10062000806170BD0CED00E002490843024908609A
:10063000704700000000FA050CED00E07047000074
:10064000054A002903D0D1690143D1617047D169BE
:100650008143D1617047000000100240054A002923
:1006600003D0916901439161704791698143916120
:10067000704700000010024010B5264A516801F092
:100680000C01254B002927D0042927D0082927D081
:100690000360516801F0F0010909204B5C5C0168BE
:1006A000E1404160546804F4E064240A1C5D21FACE
:1006B00004F48460546804F46054E40A1B5DD94077
:1006C000C160526802F44042920B144B1B1F9A5CAB
:1006D000B1FBF2F1016110BD0360DAE70360D8E716
:1006E000516801F47011536803F48033022404EB61
:1006F000914133B153689B0307D5094B59430160BE
:10070000C7E7074B59430160C3E7034B59430160F7
:10071000BFE700000010024000127A00180000201D
:1007200000093D00014988637047000000800140D6
:1007300000F00EB8054A002903D0D16B0143D16304
:100740007047D16B8143D163704700000080014046
:1007500070B50E4CE168002001290DD020704FF4D7
:1007600080752846FFF7DEFF00212846FFF7E2FFED
:1007700001202061207870BD0549886040F24C401E
:10078000C8600C20FFF740FD2070E8E73000002033
:1007900000800140704700F001B800000CB5002255
:1007A000019200922748016841F4803101604FF4C2
:1007B000A063016801F4003100910199491C019185
:1007C000009911B901999942F3D10168890302D5C1
:1007D0000121009100E000920099012930D11A49CD
:1007E0000A6842F010020A600A6822F003020A60F6
:1007F0000A6842F002020A60416841604168416053
:10080000416841F480614160416821F47C1141609C
:10081000416841F4E8114160016841F08071016074
:1008200001688901FCD5416821F0030141604168FC
:1008300041F0020141604168C1F381010229FAD10E
:100840000CBD0000001002400020024000F04EB835
:100850000F4810490068B0FBF1F04FF0E021B0F113
:10086000807F01D301200BE020F07F40401E4861D3
:10087000094AF020107000208861072008610020DC
:1008800000B1FEE7086920F0010008617047000030
:100890000000002040420F0023ED00E010B50F489B
:1008A000016841F00101016041680D4A1140416059
:1008B00001680C4A11400160016821F48021016047
:1008C000416821F4FE0141604FF41F018160FFF790
:1008D00062FF05494FF00060086010BD0010024043
:1008E0000000FFF8FFFFF6FE08ED00E00348016896
:1008F000002902D00168491E0160704744000020B1
:1009000010B5094C40F22551204600F070F800283F
:1009100008D0204600F004F9C1B2BDE8104003A0A1
:1009200000F008B910BD0000003801402563000048
:1009300000F0FCB9002904D0818941F40051818183
:100940007047818921F400518181704710B586B0CC
:1009500001210420FFF782FE01218803FFF77EFEBC
:100960004FF40070ADF8140018208DF81700032024
:100970008DF81600184C05A92046FFF771FC2115CB
:10098000ADF8141004218DF8171005A92046FFF7C3
:1009900067FC4FF4E13001900020ADF80800ADF89D
:1009A0000A00ADF80C00ADF810000C20ADF80E00F8
:1009B0000A4C01A9204600F055F8FFF7EEFD012290
:1009C00040F22551204600F032F801212046FFF781
:1009D000B1FF06B010BD0000000801400038014022
:1009E0000246002012880A4200D00120704770B5EC
:1009F000002440F66A12C1F3421301F01F050126DC
:100A000006FA05F2012B0CD0022B0DD0838A13407D
:100A1000090A8E40008830400BB100B10124204605
:100A200070BD83891340F3E7038A1340F0E710B5E4
:100A300040F66A13C1F3421301F01F040121A140E3
:100A4000012B07D0022B07D014303AB102680A43B9
:100A5000026010BD0C30F8E71030F6E702688A43F8
:100A6000026010BD30B585B004460D46208A4CF6B4
:100A7000FF710840E98801432182A0894EF6F311F5
:100A80000840A9882A8911436A8902431143A18138
:100A9000A08A4FF6FF410840A9890143A182684618
:100AA000FFF7EAFD1D48844201D1039800E0029857
:100AB000A189090408D500EBC00101EB00102968E9
:100AC0004900B0FBF1F007E000EBC00101EB0010C2
:100AD00029688900B0FBF1F06422B0FBF2F1090152
:100AE0000B096FF018056B4300EB8300A3891D040D
:100AF0004FF0320307D503EBC000B0FBF2F000F07B
:100B00000700084306E003EB0010B0FBF2F000F032
:100B10000F000843208105B030BD000000380140BF
:100B20008088C0F308007047C1F3080181807047D6
:100B3000FEE700000FB4054B10B503A9044A029864
:100B400000F018F810BC5DF814FB00008D0D0008D3
:100B50004C00002002E008C8121F08C1002AFAD188
:100B600070477047002001E001C1121F002AFBD12D
:100B7000704700002DE9FF4F8BB09A460F4605469F
:100B8000002606E025280BD052460D9990476D1C93
:100B9000761C28780028F5D10FB03046BDE8F08FDC
:100BA0000024A0460122604900E0044315F8013FFB
:100BB000203B02FA03F00842F7D128782E2817D1FB
:100BC00015F8010F44F004042A280ED06FF02F020C
:100BD0002878A0F1300109290AD808EB880102EB36
:100BE000410100EB01086D1CF2E757F8048B6D1C06
:100BF000287869283ED006DC0028CDD063280BD0A9
:100C0000642804D136E0732810D075284BD05246A2
:100C10000D999047761C85E017F8040B8DF80000BD
:100C200000208DF80100E946012003E057F8049BFD
:100C30004FF0FF3061074FF0000401D40AE0641C5C
:100C400044450DDA8442FADB19F804100029F6D184
:100C500006E0641C8442FCDB19F804100029F8D17A
:100C6000264404E019F8010B52460D999047641E82
:100C7000F8D257E001CF4FF00A0B002802DA4042C9
:100C80002D2102E0210504D52B218DF8241001210E
:100C900003E0E10705D02021F7E70DF120090891D5
:100CA0000CE00021F9E701CF4FF00A0BF9E75946B4
:100CB000FFF780FA01F1300209F8012D0028F6D182
:100CC000ADEB090000F1200B600701D44FF00108E3
:100CD000D84502DDA8EB0B0000E000208046002490
:100CE00006E009A85246005D0D999047641C761CE9
:100CF00008988442F5DB04E0302052460D99904775
:100D0000761CB8F10001A8F10108F5DC05E019F83E
:100D1000010B52460D999047761CBBF10001ABF1D7
:100D2000010BF4DC6D1C34E70928010070B50B4C95
:100D30002078FF2810D20A4D40F225512846FFF7AF
:100D400056FE002808D02846FFF7EAFE054922781B
:100D500088542078401C207070BD0000480000209E
:100D600000440040500000204FF48070054A0021EC
:100D70001170054A02E0401E80B211540028FAD1D9
:100D800070470000480000205000002070B5044665
:100D9000064DE1B22846FFF7C7FE80212846FFF73F
:100DA0001FFE0028F9D0204670BD00000038014029
:100DB000024909780170024870470000480000208D
:100DC0005000002010B50446FFF7CEFF2146BDE8D5
:100DD000104001A0FFF7FABA41544425733B0D00BF
:100DE00070B506460C461546FFF7BEFF314607A014
:100DF000FFF7ECFA3CB12846FFF715FA2046BDE8AC
:100E0000704000F005B8002070BD000025730000A0
:100E1000F8B505466846FFF7CBFF9DF80020002196
:100E2000815400229DF800600CE06B5C2BB1045DE6
:100E30009C4204D1491CC9B204E00020F8BD521CF8
:100E4000D2B200218C18B442EFD3685C08B1012003
:100E5000F8BD0020F8BD000038B5FFF785FFFFF7AB
:100E60006DFA64220FA110A0FFF7BAFF08B10120AC
:100E700038BD6846FFF79CFF04469DF8000030B17E
:100E80000CA12046FFF784F918B1002038BD0120DD
:100E900038BD0CA12046FFF77BF908B1002038BD12
:100EA000012038BD4F4B000041542B43474D4D0DA1
:100EB0000000000053494D434F4D5F47534D3930BB
:100EC0003041000053494D434F4D5F53494D383039
:100ED0003000000038B50446002000906846FFF757
:100EE00067FF05460CB1A04740B19DF800000028FF
:100EF000F4D01420FFF797F9284638BD002038BDFC
:100F0000F0B503460025084600260A2A01D00670DF
:100F1000F0BD002B1DD005DA4FF02D0200F8012B9B
:100F2000C3F1000342F210724FF00A0793FBF2F490
:100F300054EA050C06D004F1300500F8015B04FB0F
:100F40001233012592FBF7F2002AEFDC0670084607
:100F5000F0BD3022027046700846F0BD86B0142104
:100F600001A8FFF70AF9FFF7F1FCFFF7E3FAFFF733
:100F70006FFC37A0FFF7DEFD4FF4FA7408E03BA0EA
:100F8000FFF7D8FD4048FFF7D5FD2046FFF74BF9A6
:100F9000FFF762FF0028F2D13CA0FFF7CBFD41F242
:100FA0008830FFF740F945A0FFF70CFF0020FFF75E
:100FB00091FF434C606043A1FFF7EAF8002818D086
:100FC00041A0FFF7B7FDFFF7CFFE0020FFF782FF3C
:100FD000606041A1FFF7DCF818B142A0FFF7AAFD5D
:100FE00007E044A16068FFF7D3F810B144A0FFF711
:100FF000A1FDFFF7B9FE4D4FDFF8348100254FF416
:1010000000562078642808D301A8FFF757FA18B9CA
:1010100001A948A0FFF78EFD257031463846FFF73D
:10102000A7FA012803D150A151A0FFF7CFF9012160
:101030004046FFF79DFA012803D14EA14CA0FFF7CF
:10104000C5F92278521C22700A20FFF7ECF8D8E785
:101050000D0AD2B0BBF042482D47534DC4A3BFE99F
:10106000B2A6BAC5C0FDB3CC0D0A00000D0AC4A3D8
:10107000BFE9CFECD3A6B2E2CAD4B2BBD5FDB3A3CD
:10108000A3A1A3A10D0A00007C1100080D0ACDA8A0
:10109000B9FDC1CBC4A3BFE9CFECD3A6B2E2CAD499
:1010A000A3AC35C3EBBAF3BFAACABCB2A6BAC5B2E9
:1010B000E2CAD42E2E2E0D0A00000000313132007B
:1010C00028000020415444000D0AD5FDD4DABAF4BA
:1010D000BDD00D0A000000004E4F2043415252493E
:1010E000455200000D0ACDA8BBB0BDE1CAF80D0AFB
:1010F000000000004E4F20414E5357455200000063
:101100000D0AC4E3B2A6B4F2B5C4B5E7BBB0D4DDF2
:10111000CAB1CEDEC8CBBDD3CCFDA3ACC7EBC9D41E
:10112000BAF3D4D9B2A60D0A0000000000100140A5
:101130000008014052696E67696E673A0A46726F2D
:101140006D3A25730AC7EBB0B4CFC24B455932BDD7
:10115000D3CCFDBBF2D5DFB0B4CFC24B455931B9CA
:10116000D2B6CF0A0D0000004154410D000000002E
:10117000257300004154480D000000000D0AC8F41A
:10118000C4A3BFE9CFECD3A6B2E2CAD4D2BBD6B1D6
:10119000B2BBD5FDB3A3A3ACC7EBBCECB2E9C4A30F
:1011A000BFE9B5C4C1ACBDD3BBF2CAC7B7F1D2D198
:1011B000BFAAC6F4B5E7D4B4BFAAB9D80D0A0000D7
:1011C000E01100080000002050000000540B00084F
:1011D000301200085000002000050000640B0008D9
:1011E00000A24A0400000000000000000102030405
:1011F00006070809020406080000000001020304B3
:1012000001020304060708090000000000000000B6
:1012100000000000000000000000000000000000CE
:1012200000000000000000000000000000000000BE
:0400000508000131BD
:00000001FF
